:03000000020A8A67
:0C0A8A00787FE4F6D8FD75813B020AD1AC
:1008000048656C6C6F2C20506C6561736520656E5B
:10081000746572204163636F756E74204E756D62EE
:1008200065720D0A004163636F756E7420486F6CCA
:100830006465723A20536974610D0A004163636F05
:10084000756E742042616C616E63653A20000D0A1A
:10085000004163636F756E7420486F6C6465723A13
:1008600020476974610D0A004E6F2073756368201C
:100870006163636F756E742C20706C6561736520A5
:10088000656E7465722076616C696420646574615C
:10089000696C730D0A00576974686472617720731C
:1008A000746174652C20656E746572206163636F7A
:1008B000756E74206E756D6265720D0A00456E74FA
:1008C000657220416D6F756E742C20696E2068759D
:1008D0006E64726564730D0A005072657373204113
:1008E00020666F72204163636F756E742064697354
:1008F000706C617920616E64205720666F7220777A
:1009000069746864726177696E6720636173680DEA
:100910000A00496E636F727265637420696E707548
:100920007420656E74657265642E2054727920613E
:080930006761696E210D0A00E8
:100C9F00C101C1000627000000000000062100006E
:100CAF00000000000334000000033100000005378E
:0D0CBF000000000000022F2710022D27105A
:100D1800758920758DF3759850D28ED2ACD2AF22DA
:0A0938007B007A007927AF30AE2F64
:100942008E098F0A8B0B8A0C890D7C277D10120A67
:1009520035EF2430120A01AE09AF0A7C277D10124E
:100962000A357E037FE8CFCDCFCECCCE120A35EF4B
:100972002430AB0BAA0CA90D900001120A13AE0988
:10098200AF0A7C037DE8120A357E007F64CFCDCFAB
:10099200CECCCE120A35EF2430AB0BAA0CA90D90A7
:1009A2000002120A13AE09AF0A7C007D64120A35F6
:1009B2007E007F0ACFCDCFCECCCE120A35EF2430C7
:1009C200AB0BAA0CA90D900003120A13AE09AF0AD1
:1009D2007C007D0A120A35ED2430AB0BAA0CA90D5E
:0609E200900004020A135C
:100C61008E0E8F0F8B108A1189127C007D0A120A59
:100C7100357E007F0ACFCDCFCECCCE120A35EF2400
:100C810030120A01AE0EAF0F7C007D0A120A35ED5B
:0E0C91002430AB10AA11A912900001020A1320
:060D380074272DF8E6FF10
:080D3E008F993001FDC2012272
:060CCD007BFF7A08793C70
:100CD3008B098A0A890BAB09AA0AA90B1209E860D6
:100CE30013050BE50B7002050A14F91209E8FF124C
:050CF3000D3E80E2222D
:090D4600E4FF3000FDC200AF998A
:010D4F002281
:03002300020D28A3
:100D2800309905C299D20132309804C298D2003263
:100CF800E4FDFCC3ED9FEC9E5015E4FBFA0BBB0032
:0F0D0800010ABA01F8BB7EF50DBD00010C80E4B5
:010D170022B9
:100B9D00E4FDFCFF7BFF7A087900120CD3120D46A1
:100BAD00EF24CE60250470567BFF7A087925120C50
:100BBD00D3120CCD120938E4FCFD120D380DBD0019
:100BCD00010CED64064C70F2802C7BFF7A08795194
:100BDD00120CD3120CCD7B007A007921AF2EAE2DE5
:100BED00120942E4FCFD7421120D3A0DBD00010CF9
:100BFD00ED64064C70F07BFF7A08794E80067BFF22
:0E0C0D007A087968120CD37F647E00020CF81E
:100B1600E4FDFCFF7BFF7A087996120CD3120D4692
:100B2600EF24CE602504705F7BFF7A087925120CCE
:100B3600D3120CCD120938E4FCFD120D380DBD00A0
:100B4600010CED64064C70F2802C7BFF7A0879511B
:100B5600120CD3120CCD7B007A007921AF2EAE2D6C
:100B6600120942E4FCFD7421120D3A0DBD00010C80
:100B7600ED64064C70F07BFF7A08794E120CD37B3D
:100B8600FF7A0879BD80067BFF7A087968120CD354
:070B96007F647E00020CF8F1
:100C1B00E4F508120D187BFF7A0879D9120CD31260
:100C2B000D468F08E50824A9601324F6600A24EA10
:100C3B00600D2436700E8000120B9D801080001208
:100C4B000B1680097BFF7A097912120CD37F647E15
:060C5B0000120CF880C03D
:100A9600020C1BE493A3F8E493A34003F68001F24F
:100AA60008DFF48029E493A3F85407240CC8C33361
:100AB600C4540F4420C8834004F456800146F6DF30
:100AC600E4800B0102040810204080900C9FE47E15
:100AD600019360BCA3FF543F30E509541FFEE49325
:100AE600A360010ECF54C025E060A840B8E493A3EC
:100AF600FAE493A3F8E493A3C8C582C8CAC583CA17
:100B0600F0A3C8C582C8CAC583CADFE9DEE780BECE
:010CCC000027
:1009E800BB010689828A83E0225002E722BBFE020D
:0909F800E32289828A83E4932240
:100A0100BB010689828A83F0225002F722BBFE01D4
:020A1100F322CE
:100A1300F8BB010DE58229F582E5833AF583E8F019
:100A2300225006E92582C8F622BBFE05E92582C8C5
:020A3300F222AD
:100A3500BC000BBE0029EF8DF084FFADF022E4CCA5
:100A4500F875F008EF2FFFEE33FEEC33FCEE9DEC6E
:100A5500984005FCEE9DFE0FD5F0E9E4CEFD22EDB4
:100A6500F8F5F0EE8420D21CFEADF075F008EF2FFE
:100A7500FFED33FD4007985006D5F0F222C398FDEF
:050A85000FD5F0EA228C
:00000001FF
