:0300000002095C96
:0C095C00787FE4F6D8FD75810A020800DF
:10085200E4F5A0C282C280C2817F38FE1209387FCD
:10086200047E001208AA7F067E001209387F047EE9
:10087200001208AA7F0C7E001209387F047E001243
:1008820008AA7F017E001209387F047E001208AA9E
:070892007F807E000209389F
:100899001209087FE87E031208AA1209207FE87E60
:0108A900034B
:1008AA00E4FDFCC3ED9FEC9E5015E4FBFA0BBB0084
:0F08BA00010ABA01F8BB7EF50DBD00010C80E408
:0108C900220C
:10093800C280C281D2828FA07F0A7E001208AAC21A
:02094800822209
:10094A00D280C281D2828FA07F0A7E001208AAC2F8
:02095A008222F7
:1008CA008B088A09890AAB08AA09A90A1208EF60E3
:1008DA0013050AE50A7002050914F91208EFFF1256
:0508EA00094A80E22232
:10090800900000B2877F017E001208AAA3E582B496
:07091800EEF1E583B402ECEF
:01091F0022B5
:10092000900000B2877F017E001208AAA3E582B47E
:07093000DCF1E583B405ECE6
:01093700229D
:06097D001208A3020908A4
:090974001208991208A3020920DF
:0C0968001208991209081208A6020920C2
:0609830012089902092090
:0309890002092040
:10080000120852E590600B12097D7B007A00794155
:100810008038E5906401600B1209747B007A0079DE
:10082000428027E590600B1209687B007A007943CB
:100830008018E590600B1209837B007A0079448070
:10084000091209897B007A0079451208CA1208A6A4
:0208500080AE78
:1008EF00BB010689828A83E0225002E722BBFE0207
:0908FF00E32289828A83E493223A
:00000001FF
