:0300000002096B87
:0C096B00787FE4F6D8FD75810A020800D0
:10085D00E4F5A0C282C280C2817F38FE1209477FB3
:10086D00047E001208B57F067E001209477F047EC4
:10087D00001208B57F0C7E001209477F047E00121E
:10088D0008B57F017E001209477F047E001208B56E
:07089D007F807E0002094785
:1008A4001209137FE87E031208B512092B7FE87E34
:0108B4000340
:1008B500E4FDFCC3ED9FEC9E5015E4FBFA0BBB0079
:0F08C500010ABA01F8BB7EF50DBD00010C80E4FD
:0108D4002201
:040943007F887E002B
:10094700C280C281D2828FA07F0A7E001208B5C200
:020957008222FA
:10095900D280C281D2828FA07F0A7E001208B5C2DE
:020969008222E8
:1008D5008B088A09890AAB08AA09A90A1208FA60CD
:1008E50013050AE50A7002050914F91208FAFF1240
:0508F500095980E22218
:10091300900000B2877F017E001208B5A3E582B480
:07092300DCF1E583B405ECF3
:01092A0022AA
:10092B00900000B2877F017E001208B5A3E582B468
:07093B00EEF1E583B402ECCC
:010942002292
:06098C001208AE0209137F
:090983001208A41208AE02092BAF
:0C0977001208A41209131208B102092B87
:060992001208A402092B6B
:0309980002092B26
:1008000075900F12085D30900D1209437F41120957
:100810005912098C803F30910D1209437F42120911
:1008200059120983802F30920D1209437F43120918
:1008300059120977801F7F887E0030930D12094777
:100840007F44120959120992800B1209477F451201
:0D08500009591209981208B112085D80FEC6
:1008FA00BB010689828A83E0225002E722BBFE02FC
:09090A00E32289828A83E493222E
:00000001FF
