:03000000020030CB
:03000B000200D917
:1000300075890175900F516B516B5100516B516B6C
:1000400078007589017483513D516B900300515DB7
:10005000516B74C3513D516B90030B515D11E51110
:10006000E5D294D2AFD2A9758C00758A00D28C30BB
:1000700090FDC28CC294A98CAA8A11FC7482513D55
:10008000516B900318515D516B74C0513D516B859C
:10009000603111CAE564514C85613111CAE5645182
:1000A0004C85623111CAE564514C85633111CAE552
:1000B00064514C900326515D516BC2AFC2A911E54A
:1000C00011E511E511E511E50136C001A931E9118C
:1000D000D6F564D0012224302208758C00758A0080
:1000E000D28CD2A9327A2811ECDAFC22758C3C75BC
:1000F0008AB0D28C208D0280FBC28D22E875F0215F
:10010000A4F55185F050A950A8517B007C0A312BF1
:100110008A637B007C0A312B8A627B007C0A312B4C
:100120008A617B007C0A312B8A60227F007E007509
:10013000F010C3E833F8E933F9EE33FEEF33FFEEA6
:10014000C39AF582EF9BF583B35004AF83AE82EC84
:01015000337B
:10015100FCED33FDD5F0DAEDF9ECF8EFFBEEFA2228
:10016100C000C001A840A94174FF98F542740099EC
:07017100F543D001D000228C
:1002000075A038C280C281D282516BC282516B7597
:10021000A00CC280C281D282516BC282516B75A088
:1002200001C280C281D282516BC282516B75A0061D
:10023000C280C281D282516BC282516B22F5A0C2B0
:1002400080C281D282516BC282516B22F5A0D280D2
:10025000C281D282516BC282516B516B22C0E0E4E9
:10026000936005514CA380F7D0E022C000C0017814
:0C0270000179FFD9FED8FAD001D000229D
:10030000546F67676C6520535731006966204C4510
:100310004420676C6F7773005265616374696F6E18
:100320002054696D6500206D696C6C697365636F3D
:040330006E64730084
:00000001FF
