:020000002100DD
:1001000075890175900F75423C7543B051EB51EB09
:10011000518051EB51EBE5905407B4004375319099
:100120007147748351BD51EB90035051DD51EBE5A4
:100130006051CCE56151CC74C051BD51EB90035C72
:1001400051DD51EB7531187147E56051CCE56151D6
:10015000CC7531007147E56051CCE56151CC6172DD
:10016000B401437531807147748351BD51EB9003E5
:100170005051DD51EBE56051CCE56151CC74C0517B
:10018000BD51EB90035C51DD51EB7531167147E5C4
:100190006051CCE56151CC7531007147E56051CCBF
:1001A000E56151CC6184B402437531707147748349
:1001B00051BD51EB90035051DD51EBE56051CCE561
:1001C0006151CC74C051BD51EB90035C51DD51EBDA
:1001D0007531147147E56051CCE56151CC75310042
:1001E0007147E56051CCE56151CC6196B40343752C
:1001F00031607147748351BD51EB90035051DD5113
:10020000EBE56051CCE56151CC74C051BD51EB9030
:10021000035C51DD51EB7531127147E56051CCE55E
:100220006151CC7531007147E56051CCE56151CC2D
:1002300061A8B404437531507147748351BD51EBCB
:0902400090035051DD51EBE56023
:1002490051CCE56151CC74C051BD51EB90035C5167
:10025900DD51EB7531107147E56051CCE56151CC49
:100269007531007147E56051CCE56151CC61BAB493
:1002790005437531407147748351BD51EB9003506B
:1002890051DD51EBE56051CCE56151CC74C051BDF4
:1002990051EB90035C51DD51EB7531087147E56015
:1002A90051CCE56151CC7531007147E56051CCE520
:1002B9006151CC61CCB406437531307147748351B7
:1002C900BD51EB90035051DD51EBE56051CCE56137
:1002D90051CC74C051BD51EB90035C51DD51EB75AC
:1002E90031067147E56051CCE56151CC753100713A
:1002F90047E56051CCE56151CC61DE75312071472C
:10030900748351BD51EB90035051DD51EBE56051C0
:10031900CCE56151CC74C051BD51EB90035C51DD0A
:1003290051EB7531047147E56051CCE56151CC75EC
:1003390031007147E56051CCE56151CC61F0C001F4
:10034900C002A931E975F01084FAABF0EA7164F5DD
:1003590060EB7164F561D002D00122B40903243045
:10036900224003243722243022D2977A129102DACA
:09037900FCC2977A029102DAFC41
:1003820080EED2977A109102DAFCC2977A04910237
:10039200DAFC80EED2977A0E9102DAFCC2977A06E4
:1003A2009102DAFC80EED2977A0C9102DAFCC297C3
:1003B2007A089102DAFC80EED2977A0A9102DAFC8C
:1003C200C2977A0A9102DAFC80EED2977A089102F9
:1003D200DAFCC2977A0C9102DAFC80EED2977A06A6
:1003E2009102DAFCC2977A0E9102DAFC80EED29781
:1003F2007A049102DAFCC2977A109102DAFC80DC6C
:100402007D049109DDFC2285428C85438AD28C20B1
:070412008D0280FBC28D2268
:1002800075A038C280C281D28251EBC28251EB7517
:10029000A00CC280C281D28251EBC28251EB75A008
:1002A00001C280C281D28251EBC28251EB75A0069D
:1002B000C280C281D28251EBC28251EB22F5A0C230
:1002C00080C281D28251EBC28251EB22F5A0D28052
:1002D000C281D28251EBC28251EB51EB22C0E0E4E9
:1002E00093600551CCA380F7D0E022C000C0017814
:0C02F0000179FFD9FED8FAD001D000221D
:1003500044757479206379636C653A0050756C73E9
:09036000652077696474683A00B5
:00000001FF
