:03000000020030CB
:03000B000200F7F9
:1000300075890175900F516B516B5100516B516B6C
:1000400078007589017483513D516B900300515DB7
:10005000516B74C3513D516B90030B515D310331B2
:1000600003D294D2AFD2A9758C00758A00D28C309D
:1000700090FDC28CC294A98CAA8A7482513D516BA6
:10008000900318515D516B74C0513D516B90032624
:10009000515D516B883111CCE560514CE561514C9B
:1000A0007420514C893111CCE560514CE561514CC3
:1000B0008A3111CCE560514CE561514CC2AFC2A907
:1000C000310331033103310331030136C001C00272
:1000D000A931E975F01084FAABF0EA11E9F560EBAB
:1000E00011E9F561D002D00122B409032430224085
:1000F0000324372224302208758C00758A00D28CA4
:10010000D2A9327A28310ADAFC22758C3C758AB081
:0A011000D28C208D0280FBC28D22EC
:1002000075A038C280C281D282516BC282516B7597
:10021000A00CC280C281D282516BC282516B75A088
:1002200001C280C281D282516BC282516B75A0061D
:10023000C280C281D282516BC282516B22F5A0C2B0
:1002400080C281D282516BC282516B22F5A0D280D2
:10025000C281D282516BC282516B516B22C0E0E4E9
:10026000936005514CA380F7D0E022C000C0017814
:0C0270000179FFD9FED8FAD001D000229D
:10030000546F67676C6520535731006966204C4510
:100310004420676C6F7773005265616374696F6E18
:100320002054696D6500436F756E742069732000F9
:00000001FF
