:02000000802E50
:10003000758911759000516B516B5100516B516B6B
:100040007482513D516B900300515D7A1E118FDA1D
:10005000FC7A1E11A3DAFC7A1E11B7DAFC7A1E11A3
:10006000A3DAFC7A2811CBDAFC7A14C287117FDA82
:10007000FC7A2811CBDAFC7A2811DFDAFC80CC7507
:100080008D3C758BB0D28E208F0280FBC28F227583
:100090008D3C758BB0D28E208F06B28711F380F71E
:1000A000C28F22758D3C758BB0D28E208F06B287A1
:1000B000310380F7C28F22758D3C758BB0D28E20B4
:1000C0008F06B287311380F7C28F22758D3C758BF6
:1000D000B0D28E208F06B287312380F7C28F22756F
:1000E0008D3C758BB0D28E208F06B287313380F76E
:1000F000C28F22758CEE758A40D28C208D0280FBD7
:10010000C28D22758CF0758A30D28C208D0280FBD6
:10011000C28D22758CF2758AB8D28C208D0280FB3C
:10012000C28D22758CF5758A72D28C208D0280FB6F
:10013000C28D22758CF4758A2AD28C208D0280FBA8
:03014000C28D224B
:1002000075A038C280C281D282516BC282516B7597
:10021000A00CC280C281D282516BC282516B75A088
:1002200001C280C281D282516BC282516B75A0061D
:10023000C280C281D282516BC282516B22F5A0C2B0
:1002400080C281D282516BC282516B22F5A0D280D2
:10025000C281D282516BC282516B516B22C0E0E4E9
:10026000936005514CA380F7D0E022C000C0017814
:0C0270000179FFD9FED8FAD001D000229D
:0D030000524F4C4C494E472054494D45008A
:00000001FF
