:03000000020E4CA1
:0C0E4C00787FE4F6D8FD75813B020E9320
:100B5D0048656C6C6F2C20506C6561736520656EFB
:100B6D00746572204163636F756E74204E756D628E
:100B7D0065720D0A004163636F756E7420486F6C6A
:100B8D006465723A20536974610D0A004163636FA5
:100B9D00756E742042616C616E63653A20000D0ABA
:100BAD00004163636F756E7420486F6C6465723AB3
:100BBD0020476974610D0A004E6F207375636820BC
:100BCD006163636F756E742C20706C656173652045
:100BDD00656E7465722076616C69642064657461FC
:100BED00696C730D0A0057697468647261772073BC
:100BFD00746174652C20656E746572206163636F1A
:100C0D00756E74206E756D6265720D0A00456E7499
:100C1D00657220416D6F756E742C20696E2068753C
:100C2D006E64726564730D0A00496E73756666694C
:100C3D006369656E742046756E64730D0A005265A6
:100C4D006D61696E696E672042616C616E63653AB4
:100C5D002000353030204E6F7465733A20002C2003
:100C6D0000313030204E6F7465733A2000496E7636
:100C7D00616C696420416D6F756E740D0A00507260
:100C8D00657373204120666F72204163636F756ECB
:100C9D007420646973706C617920616E64205720D3
:100CAD00666F72207769746864726177696E672008
:100CBD00636173680D0A00496E636F7272656374C8
:100CCD0020696E70757420656E74657265642E2072
:0D0CDD0054727920616761696E210D0A0073
:100FF000C101C1000627000000000000062100001A
:101000000000000003340000000331000000053739
:0D1010000000000000022F2710022D271005
:10106900758920758DF3759850D28ED2ACD2AF2286
:080D9E007B007A007927AF30D9
:100DA6008E138F148B158A1689177C277D10120DCA
:100DB60049EF2430120D03AE13AF147C277D1012B9
:100DC6000D497E037FE8CFCDCFCECCCE120D49EFB5
:100DD6002430AB15AA16A917900001120D15AE13F3
:100DE600AF147C037DE8120D497E007F64CFCDCF22
:100DF600CECCCE120D49EF2430AB15AA16A917900A
:100E06000002120D15AE13AF147C007D64120D495D
:100E16007E007F0ACFCDCFCECCCE120D49EF243047
:100E2600AB15AA16A917900003120D15AE13AF1431
:100E36007C007D0A120D49ED2430AB15AA16A917C0
:060E4600900004020D15EE
:0A0F62007B007A007931AF12AE1166
:100F6C008E138F148B158A1689177C007D0A120D2F
:100F7C00497E007F0ACFCDCFCECCCE120D49EF24C7
:100F8C0030120D03AE13AF147C007D0A120D49ED27
:0E0F9C002430AB15AA16A917900001020D15FE
:071089007427250AF8E6FFB9
:081090008F993001FDC201221D
:06101E007BFF7A0B7999BB
:101024008B138A148915AB13AA14A915120CEA6040
:10103400130515E5157002051414F9120CEAFF12D4
:05104400109080E22283
:09109800E4FF3000FDC200AF9935
:0110A100222C
:030023000210794F
:10107900309905C299D20132309804C298D200320F
:10104900E4FDFCC3ED9FEC9E5015E4FBFA0BBB00DD
:0F105900010ABA01F8BB7EF50DBD00010C80E461
:011068002265
:100ED800E4FDFCFF7BFF7A0B795D12102412109859
:100EE800EF24CE602D0470627BFF7A0B798212109A
:100EF8002412101EAE2F120D9EE4FCFD74272DF84F
:100F0800E6FF1210900DBD00010CED64064C70EC6C
:100F180080307BFF7A0B79AE12102412101E7B00F2
:100F28007A007921AF2EAE2D120DA6E4FCFD7421B6
:100F38002DF8E6FF1210900DBD00010CED64064C73
:100F480070EC7BFF7A0B79AB80067BFF7A0B79C557
:0A0F58001210247F647E000210498D
:10080000E4F509F50AFFF50BF50CF50DF50EF50FFE
:10081000F510F511F5127BFF7A0B79F31210241203
:100820001098EF24CE70030209AF046003020B4D51
:100830007BFF7A0B798212102412101E7B007A0043
:100840007927AF30AE2F120DA6E4F509F50A121084
:1008500089050AE50A70020509C39406E509648062
:10086000948040EA7BFF7A0B79AB1210247BFF7AED
:100870000C791A1210241210988F0B1210988F0CEA
:10088000E50BC394305003020B45E50BD39439407C
:1008900003020B45E50CC394305003020B45E50CF5
:1008A000D394394003020B45E50B24D0FFE434FF19
:1008B000FE7C007D0A120D37E50C24D0FDEC34FFE0
:1008C000CD2FFFED3EFE7D64120D378E0D8F0ED3C2
:1008D000E50E9530E50D952F4003020A5BAE0DAF96
:1008E0000E7C017DF4120D498E0F8F10AE0DAF0EF0
:1008F0007C017DF4120D497E007F64CFCDCFCECC3C
:10090000CE120D498E118F12C3E530950EF530E5EC
:100910002F950DF52FFE120D9E7BFF7A0C794B1251
:100920001024750900750A01121089050AE50A707C
:10093000020509C39406E5096480948040EA7BFFC0
:100940007A0B79AB121024120F627B007A00793493
:10095000AF10AE0F120F6C7BFF7A0C795F12102470
:10096000E4F509F50A743412108B050AE50A7002E1
:100970000509C39403E5096480948040E87BFF7A0D
:100980000C796B1210247BFF7A0C796E121024E420
:10099000F509F50A743112108B050AE50A70020593
:1009A00009C39403E5096480948040E8020B3D7B11
:1009B000FF7A0B79AE12102412101E7B007A007998
:1009C00021AF2EAE2D120DA6E4F509F50A74211201
:1009D000108B050AE50A70020509C39406E509644F
:1009E00080948040E87BFF7A0B79AB1210247BFF68
:1009F0007A0C791A1210241210988F0B1210988FFB
:100A00000CE50BC394305003020B45E50BD394392E
:100A10004003020B45E50CC394305003020B45E53F
:100A20000CD394394003020B45E50B24D0FFE4348A
:100A3000FFFE7C007D0A120D37E50C24D0FDEC345E
:100A4000FFCD2FFFED3EFE7D64120D378E0D8F0E14
:100A5000D3E50E952EE50D952D40097BFF7A0C7997
:100A600036020B53AE0DAF0E7C017DF4120D498E94
:100A70000F8F10AE0DAF0E7C017DF4120D497E007C
:100A80007F64CFCDCFCECCCE120D498E118F12C345
:100A9000E52E950EF52EE52D950DF52D7B007A00B2
:100AA0007921AF2EFE120DA67BFF7A0C794B121026
:100AB00024750900750A01742112108B050AE50AD4
:100AC00070020509C39406E5096480948040E87BC0
:100AD000FF7A0B79AB121024120F627B007A007937
:100AE00034AF10AE0F120F6C7BFF7A0C795F1210CF
:100AF00024E4F509F50A743412108B050AE50A702E
:100B0000020509C39403E5096480948040E87BFFF3
:100B10007A0C796B1210247BFF7A0C796E121024F8
:100B2000E4F509F50A743112108B050AE50A700222
:100B30000509C39403E5096480948040E87BFF7A4B
:100B40000B79AB800E7BFF7A0C797A80067BFF7A7B
:0D0B50000B79C51210247F647E000210494D
:100FAA00E4F5081210697BFF7A0C798B121024126F
:100FBA0010988F08E50824A9601324F6600A24EA29
:100FCA00600D2436700E8000120ED8801080001238
:100FDA00080080097BFF7A0C79C41210247F647E92
:060FEA000012104980C056
:100E5800020FAAE493A3F8E493A34003F68001F2F7
:100E680008DFF48029E493A3F85407240CC8C3339B
:100E7800C4540F4420C8834004F456800146F6DF6A
:100E8800E4800B0102040810204080900FF0E47EFB
:100E9800019360BCA3FF543F30E509541FFEE4935F
:100EA800A360010ECF54C025E060A840B8E493A326
:100EB800FAE493A3F8E493A3C8C582C8CAC583CA51
:100EC800F0A3C8C582C8CAC583CADFE9DEE780BE09
:01101D0000D2
:100CEA00BB010689828A83E0225002E722BBFE0208
:090CFA00E32289828A83E493223B
:100D0300BB010689828A83F0225002F722BBFE01CF
:020D1300F322C9
:100D1500F8BB010DE58229F582E5833AF583E8F014
:100D2500225006E92582C8F622BBFE05E92582C8C0
:020D3500F222A8
:100D3700EF8DF0A4A8F0CF8CF0A428CE8DF0A42ED0
:020D4700FE228A
:100D4900BC000BBE0029EF8DF084FFADF022E4CC8E
:100D5900F875F008EF2FFFEE33FEEC33FCEE9DEC57
:100D6900984005FCEE9DFE0FD5F0E9E4CEFD22ED9D
:100D7900F8F5F0EE8420D21CFEADF075F008EF2FE7
:100D8900FFED33FD4007985006D5F0F222C398FDD8
:050D99000FD5F0EA2275
:00000001FF
