:03000000020A27CA
:0C0A2700787FE4F6D8FD758120020A6E8D
:1008000054657374696E67204C43442E2E2E004C41
:100810004344206973204F6B6179210054657374E0
:10082000696E67204C4544732E2E2E004C45447350
:1008300020617265204F6B617921002A2A2A2A2AB9
:100840002A2A2A2A2A2A2A2A2A2A2A2A2A2A2A2A08
:100850002A2A2A0D0A002A2A2A2A2A2A3830353139
:100860002054657374732A2A2A2A2A2A2A2A0D0AEE
:10087000005072657373203120666F72204C4344C0
:1008800020746573740D0A005072657373203220F2
:10089000666F72204C454420746573740D0A004CD9
:1008A0004344207465737465640D0A004C4544200C
:1008B0007465737465640D0A00496E636F727265C6
:1008C000637420746573742E205061737320636F9A
:0F08D0007272656374206E756D6265720D0A0039
:040C8E00C101C100DF
:100B5C00E4F5A0C282C280C2817F38FE120C38122A
:100B6C000C0D7F067E00120C38120C0D7F0C7E00D3
:100B7C00120C38120C0D120C34120C0D7F807E00EE
:030B8C00020C3820
:040C0D007F047E00E2
:100C1100E4FDFCC3ED9FEC9E5015E4FBFA0BBB0019
:0F0C2100010ABA01F8BB7EF50DBD00010C80E49D
:010C300022A1
:1008DF008E088F098B0A8A0B890C7C277D101209D1
:1008EF00D2EF243012099EAE08AF097C277D10127B
:1008FF0009D27E037FE8CFCDCFCECCCE1209D2EF77
:10090F002430AB0AAA0BA90C9000011209B0AE0853
:10091F00AF097C037DE81209D27E007F64CFCDCF73
:10092F00CECCCE1209D2EF2430AB0AAA0BA90C9071
:10093F0000021209B0AE08AF097C007D641209D223
:10094F007E007F0ACFCDCFCECCCE1209D2EF24308E
:10095F00AB0AAA0BA90C9000031209B0AE08AF099D
:10096F007C007D0A1209D2ED2430AB0AAA0BA90C28
:06097F009000040209B023
:070C3100120C117F017E008F
:100C3800C280C281D2828FA07F0A7E00120C11C2AC
:020C4800822206
:100C4A00D280C281D2828FA07F0A7E00120C11C28A
:020C5A008222F4
:100BE8008B0E8A0F8910AB0EAA0FA9101209856007
:100BF800130510E5107002050F14F9120985FF128C
:050C08000C4A80E2220D
:100C5C00758920758DF3759850D28ED2ACD2AF2297
:080C86008F993001FDC201222B
:060BBD007BFF7A08793B82
:100BC3008B0E8A0F8910AB0EAA0FA910120985602C
:100BD300130510E5107002050F14F9120985FF12B1
:050BE3000C8680E222F7
:090C7C00E4FF3000FDC200AF9955
:010C8500224C
:03002300020C6C60
:100C6C00309905C299D20132309804C298D2003220
:100B8F007F807E00120C387BFF7A087900120BE809
:100B9F007FD07E07120C317BFF7A08790F120BE89A
:0E0BAF007FD07E07120C117F017E00020C38F1
:100B16007F807E00120C387BFF7A08791C120BE866
:100B26004390807FE87E03120C11439040120C1113
:100B3600439020120C11439010120C317BFF7A085F
:100B4600792C120BE853900F7FE87E03120C117F6D
:060B5600017E00020C38D4
:100AB300E4F50D75900F120B5C120C5C120BBD7BF1
:100AC300FF7A087956120BC3120BBD7BFF7A0879A4
:100AD30071120BC37BFF7A087988120BC3120C7C4B
:100AE3008F0DE50D24CE600E047016120B8F7BFF65
:100AF3007A08799F8011120B167BFF7A0879AC80F4
:100B0300067BFF7A0879B9120BC37F647E00120C4F
:030B13001180CA84
:100A3300020AB3E493A3F8E493A34003F68001F21C
:100A430008DFF48029E493A3F85407240CC8C333C4
:100A5300C4540F4420C8834004F456800146F6DF93
:100A6300E4800B0102040810204080900C8EE47E89
:100A7300019360BCA3FF543F30E509541FFEE49388
:100A8300A360010ECF54C025E060A840B8E493A34F
:100A9300FAE493A3F8E493A3C8C582C8CAC583CA7A
:100AA300F0A3C8C582C8CAC583CADFE9DEE780BE32
:010C92000061
:10098500BB010689828A83E0225002E722BBFE0270
:09099500E32289828A83E49322A3
:10099E00BB010689828A83F0225002F722BBFE0138
:0209AE00F32232
:1009B000F8BB010DE58229F582E5833AF583E8F07D
:1009C000225006E92582C8F622BBFE05E92582C829
:0209D000F22211
:1009D200BC000BBE0029EF8DF084FFADF022E4CC09
:1009E200F875F008EF2FFFEE33FEEC33FCEE9DECD2
:1009F200984005FCEE9DFE0FD5F0E9E4CEFD22ED18
:100A0200F8F5F0EE8420D21CFEADF075F008EF2F61
:100A1200FFED33FD4007985006D5F0F222C398FD52
:050A22000FD5F0EA22EF
:00000001FF
