:03000000020030CB
:1000300075A000516B516B5100516B516B516B02AC
:1000400000427482513D516B900300515D516B74BD
:10005000C4513D516B90030D515DD294D295D2960F
:10006000D29731A50200677481513D516B900318FE
:10007000515D516B74C4513D516B90030D515DC284
:1000800094C295C296D29731A531A57400312EC283
:1000900094C295D296C29731A531A5C4312EF530C0
:1000A000C294D295C296C29731A531A57400312E63
:1000B000D294C295C296C29731A531A5C4312EF50E
:1000C000310200C4C294C295C296C29731433158DE
:1000D0007480513D516B900335515D516B74C0512B
:1000E0003D516B900327515DE560514CE561514CEA
:1000F00090032D515DE562514CE563514C31A531C2
:10010000A5E5308531F0A485F050F551316D31828F
:100110007480513D516B900346515DE564514CE54F
:1001200065514CE566514CE567514C02012B30900E
:1001300002240130910224023092022404309302FE
:10014000240822A930E975F01084FAABF0EA31975F
:10015000F560EB3197F56122A931E975F01084FA69
:02016000ABF002
:10016200EA3197F562EB3197F56322A950E975F010
:100172001084FAABF0EA3197F564EB3197F565221A
:10018200A951E975F01084FAABF0EA3197F566EB04
:100192003197F56722B40903243022400324372221
:1001A20024302279C831ACD9FC22C000782831B77A
:0E01B200D8FCD00022C00078F4D8FED0002285
:1002000075A038C280C281D282516BC282516B7597
:10021000A00CC280C281D282516BC282516B75A088
:1002200001C280C281D282516BC282516B75A0061D
:10023000C280C281D282516BC282516B22F5A0C2B0
:1002400080C281D282516BC282516B22F5A0D280D2
:10025000C281D282516BC282516B516B22C0E0E4E9
:10026000936005514CA380F7D0E022C000C0017814
:0C0270000179FFD9FED8FAD001D000229D
:10030000456E74657220496E70757473004545338F
:1003100033372D323032320052656164696E6720A6
:10032000496E70757473004E756D313A002C204E15
:10033000756D323A00436F6D707574696E67205247
:100340006573756C7400526573756C7420203D2064
:030350002020006A
:00000001FF
