:03000000020030CB
:1000300075A000759000516B516B5100516B516B65
:10004000516B0200457482513D516B900300515D2C
:10005000516B74C4513D516B90030D515DD294D2DC
:1000600095D296D29731AD02006A7481513D516BA1
:10007000900318515D516B74C4513D516B90030D49
:10008000515D759000C294C295C296D29731AD3140
:10009000AD74003136759000C294C295D296C29765
:1000A00031AD31ADC43136F530759000C294D29582
:1000B000C296C29731AD31AD74003136759000D221
:1000C00094C295C296C29731AD31ADC43136F53187
:1000D0000200D3C294C295C296C297314BE560E547
:1000E000613160E562E5637480513D516B90033886
:1000F000515D516B74C0513D516B900327515D317F
:10010000AD31ADE5308531F0A485F050F551317554
:10011000E560E561318AE562E5637480513D516BCC
:10012000900349515D516B74C0513D516B90032751
:10013000515D31AD31AD3090022401309102240285
:100140003092022404309302240822A930E975F089
:100150001084FAABF0EA319FF560EB319FF5612234
:07016000A931E975F01084DC
:10016700FAABF0EA319FF562EB319FF56322A950B4
:10017700E975F01084FAABF0EA319FF560EB319F37
:10018700F56122A951E975F01084FAABF0EA319FC5
:10019700F562EB319FF56322B40903243022400353
:1001A70024372224302279C831B4D9FC22C0007800
:1001B7002831BFD8FCD00022C00078F4D8FED00088
:0101C7002215
:1002000075A038C280C281D282516BC282516B7597
:10021000A00CC280C281D282516BC282516B75A088
:1002200001C280C281D282516BC282516B75A0061D
:10023000C280C281D282516BC282516B22F5A0C2B0
:1002400080C281D282516BC282516B22F5A0D280D2
:10025000C281D282516BC282516B516B22C0E0E4E9
:10026000936005514CA380F7D0E022C000C0017814
:0C0270000179FFD9FED8FAD001D000229D
:10030000456E74657220496E70757473004545338F
:1003100033372D323032320052656164696E6720A6
:10032000496E70757473004E756D313A30302C2003
:100330004E756D323A303000436F6D707574696E72
:100340006720526573756C740020526573756C7408
:0A035000203D203030303020200026
:00000001FF
