:03000000020030CB
:1000300075A000759000516B516B5100516B516B65
:10004000516B0200457482513D516B900300515D2C
:10005000516B74C4513D516B90030D515DD294D2DC
:1000600095D296D297316E02006A7482513D516BDF
:10007000900318515D516B74C4513D516B90030D49
:10008000515DC294C295C296D297316E316E7400A2
:100090003121C294C295D296C297316E316EC4316D
:1000A00021F530C294D295C296C297316E316E74EA
:1000B000003121D294C295C296C297316E316EC47E
:1000C0003121F5310200C7C294C295C296C2973160
:1000D00036314B7481513D516B900337515D516BFB
:1000E00074C1513D516B900327515D316E316EE506
:1000F000308531F0A485F050F55185F030F531317F
:1001000036314B7481513D516B900348515D516BB9
:1001100074C1513D516B900327515D02011E0201D4
:100120001E309002240130910224023092022404F5
:10013000309302240822A930E975F01084FAABF05C
:10014000EA3160F560EB3160F56122A931E975F0C3
:100150001084FAABF0EA3160F562EB3160F56322AE
:03016000B40903DC
:10016300243022400324372224302279C83175D920
:10017300FC22C00078143180D8FCD00022C0007863
:06018300F4D8FED00022BA
:1002000075A038C280C281D282516BC282516B7597
:10021000A00CC280C281D282516BC282516B75A088
:1002200001C280C281D282516BC282516B75A0061D
:10023000C280C281D282516BC282516B22F5A0C2B0
:1002400080C281D282516BC282516B22F5A0D280D2
:10025000C281D282516BC282516B516B22C0E0E4E9
:10026000936005514CA380F7D0E022C000C0017814
:0C0270000179FFD9FED8FAD001D000229D
:10030000456E74657220496E70757473004545338F
:1003100033372D323032320052656164696E6720A6
:10032000496E70757473004E756D313A60612C20A2
:100330004E756D323A6263436F6D707574696E67A6
:1003400020526573756C7400526573756C74203D32
:05035000206061626302
:00000001FF
