:03000000020EDF0E
:0C0EDF00787FE4F6D8FD758145020F26EF
:100B8D00456E7465722050617373776F72640D0AD0
:100B9D0000456E746572204163636F756E74204EEF
:100BAD006F0D0A004163636F756E7420486F6C643E
:100BBD0065723A20536974610D0A004163636F7564
:100BCD006E742042616C616E63653A20000D0A00FF
:100BDD004163636F756E7420486F6C6465723A2063
:100BED00476974610D0A004E6F207375636820614B
:100BFD0063636F756E740D0A005769746864726172
:100C0D00772053746174652C20456E746572204194
:100C1D0063636F756E74204E6F0D0A00456E7465BB
:100C2D007220416D6F756E742C20496E2048756E63
:100C3D0064726564730D0A00496E73756666696347
:100C4D0069656E742046756E64730D0A0052656D8C
:100C5D0061696E696E672042616C616E63653A20F1
:100C6D0000353030204E6F7465733A20002C200013
:100C7D00313030204E6F7465733A2000496E7661C5
:100C8D006C696420416D6F756E740D0A004E6F2096
:100C9D0053756368204163636F756E740D0A005060
:100CAD0072657373204120666F72204163636F75A7
:100CBD006E7420446973706C61792C205720666FB7
:100CCD0072205769746864726177696E670D0A00E6
:100CDD00496E636F727265637420496E7075740D21
:020CED000A00FB
:10106900C101C100062700000000000006210000A0
:1010790000000000033E000000033B0000000541A2
:101089000000000000053155504C414205364545E8
:0B109900333337022F2710022D2710E1
:1010F000758920758DF3759850D28ED2ACD2AF22FF
:080DA3007B007A007927AF30D4
:100DAB008E158F168B178A1889197C277D10120DBB
:100DBB004EEF2430120D08AE15AF167C277D1012A6
:100DCB000D4E7E037FE8CFCDCFCECCCE120D4EEFA6
:100DDB002430AB17AA18A919900001120D1AAE15E1
:100DEB00AF167C037DE8120D4E7E007F64CFCDCF16
:100DFB00CECCCE120D4EEF2430AB17AA18A91990FA
:100E0B000002120D1AAE15AF167C007D64120D4E4A
:100E1B007E007F0ACFCDCFCECCCE120D4EEF24303D
:100E2B00AB17AA18A919900003120D1AAE15AF161D
:100E3B007C007D0A120D4EED2430AB17AA18A919B0
:060E4B00900004020D1AE4
:0A0FDB007B007A00793BAF14AE13DF
:100FE5008E158F168B178A1889197C007D0A120DAC
:100FF5004E7E007F0ACFCDCFCECCCE120D4EEF2444
:1010050030120D08AE15AF167C007D0A120D4EED9F
:0E1015002430AB17AA18A919900001020D1A79
:071110007427250AF8E6FF31
:081117008F993001FDC2012295
:0610A5007BFF7A0B79C805
:1010AB008B178A188919AB17AA18A919120CEF609C
:1010BB00130519E5197002051814F9120CEFFF123C
:0510CB00111780E22274
:09111F00E4FF3000FDC200AF99AD
:0111280022A4
:03002300021100C7
:10110000309905C299D20132309804C298D2003287
:040F6B008E158F163A
:100F6F00E4FDFC7BFF7A0B798D1210AB12111F740D
:100F7F00412DF8A6070DBD00010CED64054C70EC7A
:100F8F00E51664014515701FFCFD74412DF8E6FF51
:100F9F0074362DF8E66F6002801E0DBD00010CED5A
:100FAF0064054C70E58021E4FCFD74412DF8E6FFEB
:100FBF0074312DF8E66F60057E007F01220DBD00B4
:0B0FCF00010CED64054C70E2E4FEFF35
:010FDA0022F4
:1010D000E4FDFCC3ED9FEC9E5015E4FBFA0BBB0056
:0F10E000010ABA01F8BB7EF50DBD00010C80E4DA
:0110EF0022DE
:100E5100E4FDFCF509F50AFF7BFF7A0B799E121080
:100E6100AB12111FEF24CE602D0470627BFF7A0B51
:100E710079B11210AB1210A5AE2F120DA3E4FCFD37
:100E810074272DF8E6FF1211170DBD00010CED645A
:100E9100064C70EC80307BFF7A0B79DD1210AB12BF
:100EA10010A57B007A007921AF2EAE2D120DABE497
:100EB100FCFD74212DF8E6FF1211170DBD00010C88
:100EC100ED64064C70EC7BFF7A0B79DA80067BFFD0
:0E0ED1007A0B79F41210AB7F647E000210D011
:10080000E4F509F50AF50BF50CFFF50DF50EF50FFE
:10081000F510F511F512F513F5147BFF7A0C790636
:100820001210AB12111FEF24CE70030209C904602D
:1008300003020B7D7F017E00120F6B8E0B8F0CE588
:100840000C6401450B7003020B867BFF7A0B79B1B8
:100850001210AB1210A57B007A007927AF30AE2FB3
:10086000120DABE4F509F50A121110050AE50A703C
:10087000020509C39406E5096480948040EA7BFF81
:100880007A0B79DA1210AB7BFF7A0C79291210AB54
:1008900012111F8F0D12111F8F0EE50DC3943050D2
:1008A00003020B75E50DD394394003020B75E50E79
:1008B000C394305003020B75E50ED3943940030204
:1008C0000B75E50D24D0FFE434FFFE7C007D0A1299
:1008D0000D3CE50E24D0FDEC34FFCD2FFFED3EFEA8
:1008E0007D64120D3C8E0F8F10D3E5109530E50F0F
:1008F000952F4003020A8BAE0FAF107C017DF412DE
:100900000D4E8E118F12AE0FAF107C017DF4120DC3
:100910004E7E007F64CFCDCFCECCCE120D4E8E1347
:100920008F14C3E5309510F530E52F950FF52FFEA8
:10093000120DA37BFF7A0C795A1210AB7509007562
:100940000A01121110050AE50A70020509C394068E
:10095000E5096480948040EA7BFF7A0B79DA121013
:10096000AB120FDB7B007A00793EAF12AE11120F93
:10097000E57BFF7A0C796E1210ABE4F509F50A7489
:100980003E121112050AE50A70020509C39403E537
:10099000096480948040E87BFF7A0C797A1210AB6E
:1009A0007BFF7A0C797D1210ABE4F509F50A743BF4
:1009B000121112050AE50A70020509C39403E5093C
:1009C0006480948040E8020B6D7F027E00120F6B02
:1009D0008E0B8F0CE50C6401450B7003020B867BBC
:1009E000FF7A0B79DD1210AB1210A57B007A00792B
:1009F00021AF2EAE2D120DABE4F509F50A742112CC
:100A00001112050AE50A70020509C39406E5096496
:100A100080948040E87BFF7A0B79DA1210AB7BFF81
:100A20007A0C79291210AB12111F8F0D12111F8F22
:100A30000EE50DC394305003020B75E50DD39439C8
:100A40004003020B75E50EC394305003020B75E5AD
:100A50000ED394394003020B75E50D24D0FFE43426
:100A6000FFFE7C007D0A120D3CE50E24D0FDEC3427
:100A7000FFCD2FFFED3EFE7D64120D3C8E0F8F10DB
:100A8000D3E510952EE50F952D40097BFF7A0C7963
:100A900045020B83AE0FAF107C017DF4120D4E8E1C
:100AA000118F12AE0FAF107C017DF4120D4E7E003F
:100AB0007F64CFCDCFCECCCE120D4E8E138F14C30C
:100AC000E52E9510F52EE52D950FF52D7B007A007E
:100AD0007921AF2EFE120DAB7BFF7A0C795A1210E2
:100AE000AB750900750A017421121112050AE50A95
:100AF00070020509C39406E5096480948040E87B90
:100B0000FF7A0B79DA1210AB120FDB7B007A0079D7
:100B10003EAF12AE11120FE57BFF7A0C796E121008
:100B2000ABE4F509F50A743E121112050AE50A70E4
:100B3000020509C39403E5096480948040E87BFFC3
:100B40007A0C797A1210AB7BFF7A0C797D1210AB9C
:100B5000E4F509F50A743B121112050AE50A700260
:100B60000509C39403E5096480948040E87BFF7A1B
:100B70000B79DA800E7BFF7A0C798980067BFF7A0D
:0D0B80000C799A1210AB7F647E000210D039
:10102300E4F5081210F07BFF7A0C79AC1210AB12C6
:10103300111F8F08E50824A9601324F6600A24EA27
:10104300600D2436700E8000120E51801080001245
:10105300080080097BFF7A0C79DD1210AB7F647E78
:06106300001210D080C055
:100EEB00021023E493A3F8E493A34003F68001F2EA
:100EFB0008DFF48029E493A3F85407240CC8C33308
:100F0B00C4540F4420C8834004F456800146F6DFD6
:100F1B00E4800B0102040810204080901069E47EED
:100F2B00019360BCA3FF543F30E509541FFEE493CB
:100F3B00A360010ECF54C025E060A840B8E493A392
:100F4B00FAE493A3F8E493A3C8C582C8CAC583CABD
:100F5B00F0A3C8C582C8CAC583CADFE9DEE780BE75
:0110A400004B
:100CEF00BB010689828A83E0225002E722BBFE0203
:090CFF00E32289828A83E4932236
:100D0800BB010689828A83F0225002F722BBFE01CA
:020D1800F322C4
:100D1A00F8BB010DE58229F582E5833AF583E8F00F
:100D2A00225006E92582C8F622BBFE05E92582C8BB
:020D3A00F222A3
:100D3C00EF8DF0A4A8F0CF8CF0A428CE8DF0A42ECB
:020D4C00FE2285
:100D4E00BC000BBE0029EF8DF084FFADF022E4CC89
:100D5E00F875F008EF2FFFEE33FEEC33FCEE9DEC52
:100D6E00984005FCEE9DFE0FD5F0E9E4CEFD22ED98
:100D7E00F8F5F0EE8420D21CFEADF075F008EF2FE2
:100D8E00FFED33FD4007985006D5F0F222C398FDD3
:050D9E000FD5F0EA2270
:00000001FF
