:02000000802E50
:100030007589017590007540C37541503195516BBC
:10004000516B5100516B516B516BE570540FFFF5C3
:1000500090311A31477482513D516B900300515DCC
:10006000516B74C4513D516B900320E560514CE5D8
:1000700061514CE562514CE563514C317EE5705461
:10008000F0C4FFF590311A31477482513D516B90A5
:100090000308515D516B74C4513D516B900320E5D1
:1000A00060514CE561514CE562514CE563514C3176
:1000B0007EE571540FFFF590311A31477482513D3E
:1000C000516B900300515D516B74C4513D516B9065
:1000D0000320E560514CE561514CE562514CE5630C
:1000E000514C317EE57154F0C4FFF590311A31471F
:1000F0007482513D516B900308515D516B74C45132
:100100003D516B900320E560514CE561514CE56237
:10011000514CE563514C317E014AEF5408B408025A
:100120007E107E00EF5404B40403EE2401EEF5319A
:10013000EF5402B402027E107E00EF5401B40103BA
:10014000EE2401EEF53222A931E975F01084FAAB04
:07015000F0EA3170F560EBED
:100157003170F561A932E975F01084FAABF0EA3134
:1001670070F562EB3170F56322B409032430224045
:10017700032437222430227A283185DAFC2285426B
:100187008C85438AD28C208D0280FBC28D22A840A9
:0D019700A94174FF98F542740099F54322C8
:1002000075A038C280C281D282516BC282516B7597
:10021000A00CC280C281D282516BC282516B75A088
:1002200001C280C281D282516BC282516B75A0061D
:10023000C280C281D282516BC282516B22F5A0C2B0
:1002400080C281D282516BC282516B22F5A0D280D2
:10025000C281D282516BC282516B516B22C0E0E4E9
:10026000936005514CA380F7D0E022C000C0017814
:0C0270000179FFD9FED8FAD001D000229D
:100300004C6576656C2031004C6576656C2032005A
:100310004C6576656C2033004C6576656C20340046
:0803200056616C75653A20007E
:00000001FF
