:02000000802E50
:100030007589017590007540C375415075702375C1
:10004000714531B3516B516B5100516B516B516B19
:10005000E570540FFFF590313031657485513D5195
:100060006B900300515D516B74C3513D516B900314
:1000700020515D516BE560514CE561514CE5625199
:100080004CE563514C319CE57054F0C4FFF5903160
:100090003031657485513D516B900308515D516B52
:1000A00074C3513D516B900320515D516BE560511C
:1000B0004CE561514CE562514CE563514C319CE596
:1000C00071540FFFF590313031657485513D516B9E
:1000D000900310515D516B74C3513D516B900320DF
:1000E000515D516BE560514CE561514CE562514CFD
:1000F000E563514C319CE57154F0C4FFF59031300B
:1001000031657485513D516B900318515D516B748D
:10011000C3513D516B900320515D516BE560514CD3
:10012000E561514CE562514CE563514C319C015005
:10013000EF5408B408047E1080027E00EF5404B42B
:100140000405EE24018001EEF531EF5402B40204FF
:0F0150007E1080027E00EF5401B40105EE240101
:10015F008001EEF53222A931E975F01084FAABF087
:10016F00EA318EF560EB318EF561A932E975F01049
:10017F0084FAABF0EA318EF562EB318EF56322B47F
:10018F00090324302240032437222430227A2831D5
:10019F00A3DAFC2285428C85438AD28C208D028083
:1001AF00FBC28D22A840A94174FF98F542740099B3
:0301BF00F54322E3
:1002000075A038C280C281D282516BC282516B7597
:10021000A00CC280C281D282516BC282516B75A088
:1002200001C280C281D282516BC282516B75A0061D
:10023000C280C281D282516BC282516B22F5A0C2B0
:1002400080C281D282516BC282516B22F5A0D280D2
:10025000C281D282516BC282516B516B22C0E0E4E9
:10026000936005514CA380F7D0E022C000C0017814
:0C0270000179FFD9FED8FAD001D000229D
:100300004C6576656C2031004C6576656C2032005A
:100310004C6576656C2033004C6576656C20340046
:0803200056616C75653A20007E
:00000001FF
